{
  "_format": "hh-sol-artifact-1",
  "contractName": "ChainStreamNFT",
  "sourceName": "contracts/ChainStreamNFT.sol",
  "abi": [
    {
      "inputs": [
        {
          "internalType": "address",
          "name": "initialOwner",
          "type": "address"
        }
      ],
      "stateMutability": "nonpayable",
      "type": "constructor"
    },
    {
      "inputs": [
        {
          "internalType": "address",
          "name": "sender",
          "type": "address"
        },
        {
          "internalType": "uint256",
          "name": "balance",
          "type": "uint256"
        },
        {
          "internalType": "uint256",
          "name": "needed",
          "type": "uint256"
        },
        {
          "internalType": "uint256",
          "name": "tokenId",
          "type": "uint256"
        }
      ],
      "name": "ERC1155InsufficientBalance",
      "type": "error"
    },
    {
      "inputs": [
        {
          "internalType": "address",
          "name": "approver",
          "type": "address"
        }
      ],
      "name": "ERC1155InvalidApprover",
      "type": "error"
    },
    {
      "inputs": [
        {
          "internalType": "uint256",
          "name": "idsLength",
          "type": "uint256"
        },
        {
          "internalType": "uint256",
          "name": "valuesLength",
          "type": "uint256"
        }
      ],
      "name": "ERC1155InvalidArrayLength",
      "type": "error"
    },
    {
      "inputs": [
        {
          "internalType": "address",
          "name": "operator",
          "type": "address"
        }
      ],
      "name": "ERC1155InvalidOperator",
      "type": "error"
    },
    {
      "inputs": [
        {
          "internalType": "address",
          "name": "receiver",
          "type": "address"
        }
      ],
      "name": "ERC1155InvalidReceiver",
      "type": "error"
    },
    {
      "inputs": [
        {
          "internalType": "address",
          "name": "sender",
          "type": "address"
        }
      ],
      "name": "ERC1155InvalidSender",
      "type": "error"
    },
    {
      "inputs": [
        {
          "internalType": "address",
          "name": "operator",
          "type": "address"
        },
        {
          "internalType": "address",
          "name": "owner",
          "type": "address"
        }
      ],
      "name": "ERC1155MissingApprovalForAll",
      "type": "error"
    },
    {
      "inputs": [
        {
          "internalType": "uint256",
          "name": "numerator",
          "type": "uint256"
        },
        {
          "internalType": "uint256",
          "name": "denominator",
          "type": "uint256"
        }
      ],
      "name": "ERC2981InvalidDefaultRoyalty",
      "type": "error"
    },
    {
      "inputs": [
        {
          "internalType": "address",
          "name": "receiver",
          "type": "address"
        }
      ],
      "name": "ERC2981InvalidDefaultRoyaltyReceiver",
      "type": "error"
    },
    {
      "inputs": [
        {
          "internalType": "uint256",
          "name": "tokenId",
          "type": "uint256"
        },
        {
          "internalType": "uint256",
          "name": "numerator",
          "type": "uint256"
        },
        {
          "internalType": "uint256",
          "name": "denominator",
          "type": "uint256"
        }
      ],
      "name": "ERC2981InvalidTokenRoyalty",
      "type": "error"
    },
    {
      "inputs": [
        {
          "internalType": "uint256",
          "name": "tokenId",
          "type": "uint256"
        },
        {
          "internalType": "address",
          "name": "receiver",
          "type": "address"
        }
      ],
      "name": "ERC2981InvalidTokenRoyaltyReceiver",
      "type": "error"
    },
    {
      "inputs": [
        {
          "internalType": "address",
          "name": "owner",
          "type": "address"
        }
      ],
      "name": "OwnableInvalidOwner",
      "type": "error"
    },
    {
      "inputs": [
        {
          "internalType": "address",
          "name": "account",
          "type": "address"
        }
      ],
      "name": "OwnableUnauthorizedAccount",
      "type": "error"
    },
    {
      "anonymous": false,
      "inputs": [
        {
          "indexed": true,
          "internalType": "address",
          "name": "account",
          "type": "address"
        },
        {
          "indexed": true,
          "internalType": "address",
          "name": "operator",
          "type": "address"
        },
        {
          "indexed": false,
          "internalType": "bool",
          "name": "approved",
          "type": "bool"
        }
      ],
      "name": "ApprovalForAll",
      "type": "event"
    },
    {
      "anonymous": false,
      "inputs": [
        {
          "indexed": true,
          "internalType": "address",
          "name": "creator",
          "type": "address"
        },
        {
          "indexed": false,
          "internalType": "uint256",
          "name": "tokenId",
          "type": "uint256"
        },
        {
          "indexed": false,
          "internalType": "uint256",
          "name": "amount",
          "type": "uint256"
        },
        {
          "indexed": false,
          "internalType": "string",
          "name": "uri",
          "type": "string"
        }
      ],
      "name": "NFTMinted",
      "type": "event"
    },
    {
      "anonymous": false,
      "inputs": [
        {
          "indexed": true,
          "internalType": "address",
          "name": "previousOwner",
          "type": "address"
        },
        {
          "indexed": true,
          "internalType": "address",
          "name": "newOwner",
          "type": "address"
        }
      ],
      "name": "OwnershipTransferred",
      "type": "event"
    },
    {
      "anonymous": false,
      "inputs": [
        {
          "indexed": true,
          "internalType": "address",
          "name": "operator",
          "type": "address"
        },
        {
          "indexed": true,
          "internalType": "address",
          "name": "from",
          "type": "address"
        },
        {
          "indexed": true,
          "internalType": "address",
          "name": "to",
          "type": "address"
        },
        {
          "indexed": false,
          "internalType": "uint256[]",
          "name": "ids",
          "type": "uint256[]"
        },
        {
          "indexed": false,
          "internalType": "uint256[]",
          "name": "values",
          "type": "uint256[]"
        }
      ],
      "name": "TransferBatch",
      "type": "event"
    },
    {
      "anonymous": false,
      "inputs": [
        {
          "indexed": true,
          "internalType": "address",
          "name": "operator",
          "type": "address"
        },
        {
          "indexed": true,
          "internalType": "address",
          "name": "from",
          "type": "address"
        },
        {
          "indexed": true,
          "internalType": "address",
          "name": "to",
          "type": "address"
        },
        {
          "indexed": false,
          "internalType": "uint256",
          "name": "id",
          "type": "uint256"
        },
        {
          "indexed": false,
          "internalType": "uint256",
          "name": "value",
          "type": "uint256"
        }
      ],
      "name": "TransferSingle",
      "type": "event"
    },
    {
      "anonymous": false,
      "inputs": [
        {
          "indexed": false,
          "internalType": "string",
          "name": "value",
          "type": "string"
        },
        {
          "indexed": true,
          "internalType": "uint256",
          "name": "id",
          "type": "uint256"
        }
      ],
      "name": "URI",
      "type": "event"
    },
    {
      "inputs": [
        {
          "internalType": "address",
          "name": "account",
          "type": "address"
        },
        {
          "internalType": "uint256",
          "name": "id",
          "type": "uint256"
        }
      ],
      "name": "balanceOf",
      "outputs": [
        {
          "internalType": "uint256",
          "name": "",
          "type": "uint256"
        }
      ],
      "stateMutability": "view",
      "type": "function"
    },
    {
      "inputs": [
        {
          "internalType": "address[]",
          "name": "accounts",
          "type": "address[]"
        },
        {
          "internalType": "uint256[]",
          "name": "ids",
          "type": "uint256[]"
        }
      ],
      "name": "balanceOfBatch",
      "outputs": [
        {
          "internalType": "uint256[]",
          "name": "",
          "type": "uint256[]"
        }
      ],
      "stateMutability": "view",
      "type": "function"
    },
    {
      "inputs": [
        {
          "internalType": "address",
          "name": "account",
          "type": "address"
        },
        {
          "internalType": "uint256",
          "name": "id",
          "type": "uint256"
        },
        {
          "internalType": "uint256",
          "name": "value",
          "type": "uint256"
        }
      ],
      "name": "burn",
      "outputs": [],
      "stateMutability": "nonpayable",
      "type": "function"
    },
    {
      "inputs": [
        {
          "internalType": "address",
          "name": "account",
          "type": "address"
        },
        {
          "internalType": "uint256[]",
          "name": "ids",
          "type": "uint256[]"
        },
        {
          "internalType": "uint256[]",
          "name": "values",
          "type": "uint256[]"
        }
      ],
      "name": "burnBatch",
      "outputs": [],
      "stateMutability": "nonpayable",
      "type": "function"
    },
    {
      "inputs": [
        {
          "internalType": "uint256",
          "name": "id",
          "type": "uint256"
        }
      ],
      "name": "exists",
      "outputs": [
        {
          "internalType": "bool",
          "name": "",
          "type": "bool"
        }
      ],
      "stateMutability": "view",
      "type": "function"
    },
    {
      "inputs": [
        {
          "internalType": "address",
          "name": "account",
          "type": "address"
        },
        {
          "internalType": "address",
          "name": "operator",
          "type": "address"
        }
      ],
      "name": "isApprovedForAll",
      "outputs": [
        {
          "internalType": "bool",
          "name": "",
          "type": "bool"
        }
      ],
      "stateMutability": "view",
      "type": "function"
    },
    {
      "inputs": [
        {
          "internalType": "address",
          "name": "account",
          "type": "address"
        },
        {
          "internalType": "uint256",
          "name": "id",
          "type": "uint256"
        },
        {
          "internalType": "uint256",
          "name": "amount",
          "type": "uint256"
        },
        {
          "internalType": "string",
          "name": "uri",
          "type": "string"
        },
        {
          "internalType": "uint96",
          "name": "royaltyFee",
          "type": "uint96"
        }
      ],
      "name": "mint",
      "outputs": [],
      "stateMutability": "nonpayable",
      "type": "function"
    },
    {
      "inputs": [],
      "name": "owner",
      "outputs": [
        {
          "internalType": "address",
          "name": "",
          "type": "address"
        }
      ],
      "stateMutability": "view",
      "type": "function"
    },
    {
      "inputs": [],
      "name": "renounceOwnership",
      "outputs": [],
      "stateMutability": "nonpayable",
      "type": "function"
    },
    {
      "inputs": [
        {
          "internalType": "uint256",
          "name": "tokenId",
          "type": "uint256"
        },
        {
          "internalType": "uint256",
          "name": "salePrice",
          "type": "uint256"
        }
      ],
      "name": "royaltyInfo",
      "outputs": [
        {
          "internalType": "address",
          "name": "receiver",
          "type": "address"
        },
        {
          "internalType": "uint256",
          "name": "amount",
          "type": "uint256"
        }
      ],
      "stateMutability": "view",
      "type": "function"
    },
    {
      "inputs": [
        {
          "internalType": "address",
          "name": "from",
          "type": "address"
        },
        {
          "internalType": "address",
          "name": "to",
          "type": "address"
        },
        {
          "internalType": "uint256[]",
          "name": "ids",
          "type": "uint256[]"
        },
        {
          "internalType": "uint256[]",
          "name": "values",
          "type": "uint256[]"
        },
        {
          "internalType": "bytes",
          "name": "data",
          "type": "bytes"
        }
      ],
      "name": "safeBatchTransferFrom",
      "outputs": [],
      "stateMutability": "nonpayable",
      "type": "function"
    },
    {
      "inputs": [
        {
          "internalType": "address",
          "name": "from",
          "type": "address"
        },
        {
          "internalType": "address",
          "name": "to",
          "type": "address"
        },
        {
          "internalType": "uint256",
          "name": "id",
          "type": "uint256"
        },
        {
          "internalType": "uint256",
          "name": "value",
          "type": "uint256"
        },
        {
          "internalType": "bytes",
          "name": "data",
          "type": "bytes"
        }
      ],
      "name": "safeTransferFrom",
      "outputs": [],
      "stateMutability": "nonpayable",
      "type": "function"
    },
    {
      "inputs": [
        {
          "internalType": "address",
          "name": "operator",
          "type": "address"
        },
        {
          "internalType": "bool",
          "name": "approved",
          "type": "bool"
        }
      ],
      "name": "setApprovalForAll",
      "outputs": [],
      "stateMutability": "nonpayable",
      "type": "function"
    },
    {
      "inputs": [
        {
          "internalType": "uint256",
          "name": "tokenId",
          "type": "uint256"
        },
        {
          "internalType": "string",
          "name": "newuri",
          "type": "string"
        }
      ],
      "name": "setURI",
      "outputs": [],
      "stateMutability": "nonpayable",
      "type": "function"
    },
    {
      "inputs": [
        {
          "internalType": "bytes4",
          "name": "interfaceId",
          "type": "bytes4"
        }
      ],
      "name": "supportsInterface",
      "outputs": [
        {
          "internalType": "bool",
          "name": "",
          "type": "bool"
        }
      ],
      "stateMutability": "view",
      "type": "function"
    },
    {
      "inputs": [],
      "name": "totalSupply",
      "outputs": [
        {
          "internalType": "uint256",
          "name": "",
          "type": "uint256"
        }
      ],
      "stateMutability": "view",
      "type": "function"
    },
    {
      "inputs": [
        {
          "internalType": "uint256",
          "name": "id",
          "type": "uint256"
        }
      ],
      "name": "totalSupply",
      "outputs": [
        {
          "internalType": "uint256",
          "name": "",
          "type": "uint256"
        }
      ],
      "stateMutability": "view",
      "type": "function"
    },
    {
      "inputs": [
        {
          "internalType": "address",
          "name": "newOwner",
          "type": "address"
        }
      ],
      "name": "transferOwnership",
      "outputs": [],
      "stateMutability": "nonpayable",
      "type": "function"
    },
    {
      "inputs": [
        {
          "internalType": "uint256",
          "name": "tokenId",
          "type": "uint256"
        }
      ],
      "name": "uri",
      "outputs": [
        {
          "internalType": "string",
          "name": "",
          "type": "string"
        }
      ],
      "stateMutability": "view",
      "type": "function"
    }
  ],
  "bytecode": "0x608060405234801562000010575f80fd5b5060405162001cfe38038062001cfe8339810160408190526200003391620000f3565b60408051602081019091525f815281906200004e8162000090565b506001600160a01b0381166200007d57604051631e4fbdf760e01b81525f600482015260240160405180910390fd5b6200008881620000a2565b50506200028c565b60026200009e8282620001c0565b5050565b600380546001600160a01b038381166001600160a01b0319831681179093556040519116919082907f8be0079c531659141344cd1fd0a4f28419497f9722a3daafe3b4186f6b6457e0905f90a35050565b5f6020828403121562000104575f80fd5b81516001600160a01b03811681146200011b575f80fd5b9392505050565b634e487b7160e01b5f52604160045260245ffd5b600181811c908216806200014b57607f821691505b6020821081036200016a57634e487b7160e01b5f52602260045260245ffd5b50919050565b601f821115620001bb57805f5260205f20601f840160051c81016020851015620001975750805b601f840160051c820191505b81811015620001b8575f8155600101620001a3565b50505b505050565b81516001600160401b03811115620001dc57620001dc62000122565b620001f481620001ed845462000136565b8462000170565b602080601f8311600181146200022a575f8415620002125750858301515b5f19600386901b1c1916600185901b17855562000284565b5f85815260208120601f198616915b828110156200025a5788860151825594840194600190910190840162000239565b50858210156200027857878501515f19600388901b60f8161c191681555b505060018460011b0185555b505050505050565b611a64806200029a5f395ff3fe608060405234801561000f575f80fd5b506004361061011b575f3560e01c8063715018a6116100a9578063dd4d84851161006e578063dd4d848514610293578063e985e9c5146102a6578063f242432a146102e1578063f2fde38b146102f4578063f5298aca14610307575f80fd5b8063715018a61461022b578063862440e2146102335780638da5cb5b14610246578063a22cb46514610261578063bd85b03914610274575f80fd5b80632a55205a116100ef5780632a55205a146101905780632eb2c2d6146101c25780634e1273f4146101d75780634f558e79146101f75780636b20c45414610218575f80fd5b8062fdd58e1461011f57806301ffc9a7146101455780630e89341c1461016857806318160ddd14610188575b5f80fd5b61013261012d366004611172565b61031a565b6040519081526020015b60405180910390f35b6101586101533660046111af565b610341565b604051901515815260200161013c565b61017b6101763660046111d1565b61034b565b60405161013c919061122b565b600554610132565b6101a361019e36600461123d565b6103ea565b604080516001600160a01b03909316835260208301919091520161013c565b6101d56101d036600461139d565b61046d565b005b6101ea6101e5366004611440565b61048c565b60405161013c9190611534565b6101586102053660046111d1565b5f90815260046020526040902054151590565b6101d5610226366004611546565b61055c565b6101d56105c0565b6101d56102413660046115b5565b6105d3565b6003546040516001600160a01b03909116815260200161013c565b6101d561026f3660046115ef565b6105f2565b6101326102823660046111d1565b5f9081526004602052604090205490565b6101d56102a1366004611628565b610601565b6101586102b43660046116a4565b6001600160a01b039182165f90815260016020908152604080832093909416825291909152205460ff1690565b6101d56102ef3660046116d5565b6106a1565b6101d5610302366004611735565b6106b7565b6101d561031536600461174e565b6106f4565b5f818152602081815260408083206001600160a01b03861684529091529020545b92915050565b5f61033b8261072a565b5f8181526008602052604090208054606091906103679061177e565b80601f01602080910402602001604051908101604052809291908181526020018280546103939061177e565b80156103de5780601f106103b5576101008083540402835291602001916103de565b820191905f5260205f20905b8154815290600101906020018083116103c157829003601f168201915b50505050509050919050565b5f82815260076020526040812080548291906001600160a01b03811690600160a01b90046001600160601b03168161043d5750506006546001600160a01b03811690600160a01b90046001600160601b03165b5f6127106104546001600160601b038416896117ca565b61045e91906117e1565b92989297509195505050505050565b610478335b8661074e565b61048585858585856107a8565b5050505050565b606081518351146104c25781518351604051635b05999160e01b8152600481019290925260248201526044015b60405180910390fd5b5f835167ffffffffffffffff8111156104dd576104dd61125d565b604051908082528060200260200182016040528015610506578160200160208202803683370190505b5090505f5b84518110156105545760208082028601015161052f9060208084028701015161031a565b82828151811061054157610541611800565b602090810291909101015260010161050b565b509392505050565b6001600160a01b038316331480159061057c575061057a83336102b4565b155b156105b057335b60405163711bec9160e11b81526001600160a01b03918216600482015290841660248201526044016104b9565b6105bb838383610808565b505050565b6105c861084d565b6105d15f61087a565b565b6105db61084d565b5f8281526008602052604090206105bb8282611858565b6105fd3383836108cb565b5050565b61060961084d565b61062385858560405180602001604052805f815250610988565b5f84815260086020526040902061063a8382611858565b506001600160601b03811615610655576106558486836109ec565b846001600160a01b03167f01f8bd07e6c27ff813d5c6d3c4bf0313a1d75043cf978214b504b794075e526685858560405161069293929190611914565b60405180910390a25050505050565b6106aa33610472565b6104858585858585610aac565b6106bf61084d565b6001600160a01b0381166106e857604051631e4fbdf760e01b81525f60048201526024016104b9565b6106f18161087a565b50565b6001600160a01b0383163314801590610714575061071283336102b4565b155b1561071f5733610583565b6105bb838383610b39565b5f6001600160e01b0319821663152a902d60e11b148061033b575061033b82610ba0565b816001600160a01b0316816001600160a01b031614158015610777575061077581836102b4565b155b156105fd5760405163711bec9160e11b81526001600160a01b038084166004830152821660248201526044016104b9565b6001600160a01b0384166107d157604051632bfa23e760e11b81525f60048201526024016104b9565b6001600160a01b0385166107f957604051626a0d4560e21b81525f60048201526024016104b9565b61048585858585856001610bef565b6001600160a01b03831661083057604051626a0d4560e21b81525f60048201526024016104b9565b6105bb835f848460405180602001604052805f8152506001610bef565b6003546001600160a01b031633146105d15760405163118cdaa760e01b81523360048201526024016104b9565b600380546001600160a01b038381166001600160a01b0319831681179093556040519116919082907f8be0079c531659141344cd1fd0a4f28419497f9722a3daafe3b4186f6b6457e0905f90a35050565b6001600160a01b0383166108f457604051631f18c42760e11b81525f60048201526024016104b9565b6001600160a01b03821661091c5760405162ced3e160e81b81525f60048201526024016104b9565b6001600160a01b038381165f81815260016020908152604080832094871680845294825291829020805460ff191686151590811790915591519182527f17307eab39ab6107e8899845ad3d59bd9653f200f220920489ca2b5937696c31910160405180910390a3505050565b6001600160a01b0384166109b157604051632bfa23e760e11b81525f60048201526024016104b9565b604080516001808252602082018690528183019081526060820185905260808201909252906109e45f8784848784610bef565b505050505050565b6127106001600160601b038216811015610a325760405163dfd1fc1b60e01b8152600481018590526001600160601b0383166024820152604481018290526064016104b9565b6001600160a01b038316610a6257604051634b4f842960e11b8152600481018590525f60248201526044016104b9565b506040805180820182526001600160a01b0393841681526001600160601b0392831660208083019182525f968752600790529190942093519051909116600160a01b029116179055565b6001600160a01b038416610ad557604051632bfa23e760e11b81525f60048201526024016104b9565b6001600160a01b038516610afd57604051626a0d4560e21b81525f60048201526024016104b9565b60408051600180825260208201869052818301908152606082018590526080820190925290610b3087878484875f610bef565b50505050505050565b6001600160a01b038316610b6157604051626a0d4560e21b81525f60048201526024016104b9565b604080516001808252602082018590528183019081526060820184905260a082019092525f608082018181529192916104859187918590859083610bef565b5f6001600160e01b03198216636cdb3d1360e11b1480610bd057506001600160e01b031982166303a24d0760e21b145b8061033b57506301ffc9a760e01b6001600160e01b031983161461033b565b610bfb86868686610c47565b6001600160a01b038516156109e457338115610c2457610c1f818888888888610c59565b610b30565b60208581015190850151610c3c838a8a85858a610d7a565b505050505050505050565b610c5384848484610e61565b50505050565b6001600160a01b0384163b156109e45760405163bc197c8160e01b81526001600160a01b0385169063bc197c8190610c9d908990899088908890889060040161193b565b6020604051808303815f875af1925050508015610cd7575060408051601f3d908101601f19168201909252610cd491810190611998565b60015b610d3e573d808015610d04576040519150601f19603f3d011682016040523d82523d5f602084013e610d09565b606091505b5080515f03610d3657604051632bfa23e760e11b81526001600160a01b03861660048201526024016104b9565b805160208201fd5b6001600160e01b0319811663bc197c8160e01b14610b3057604051632bfa23e760e11b81526001600160a01b03861660048201526024016104b9565b6001600160a01b0384163b156109e45760405163f23a6e6160e01b81526001600160a01b0385169063f23a6e6190610dbe90899089908890889088906004016119b3565b6020604051808303815f875af1925050508015610df8575060408051601f3d908101601f19168201909252610df591810190611998565b60015b610e25573d808015610d04576040519150601f19603f3d011682016040523d82523d5f602084013e610d09565b6001600160e01b0319811663f23a6e6160e01b14610b3057604051632bfa23e760e11b81526001600160a01b03861660048201526024016104b9565b610e6d84848484610f48565b6001600160a01b038416610eea575f805b8351811015610ed15760208181028481018201519086018201515f908152600490925260408220805491928392610eb69084906119f7565b90915550610ec6905081846119f7565b925050600101610e7e565b508060055f828254610ee391906119f7565b9091555050505b6001600160a01b038316610c53575f805b8351811015610f375760208181028481018201519086018201515f90815260049092526040909120805482900390559190910190600101610efb565b506005805491909103905550505050565b8051825114610f775781518151604051635b05999160e01b8152600481019290925260248201526044016104b9565b335f5b8351811015611079576020818102858101820151908501909101516001600160a01b0388161561102b575f828152602081815260408083206001600160a01b038c16845290915290205481811015611005576040516303dee4c560e01b81526001600160a01b038a1660048201526024810182905260448101839052606481018490526084016104b9565b5f838152602081815260408083206001600160a01b038d16845290915290209082900390555b6001600160a01b0387161561106f575f828152602081815260408083206001600160a01b038b168452909152812080548392906110699084906119f7565b90915550505b5050600101610f7a565b5082516001036110f95760208301515f906020840151909150856001600160a01b0316876001600160a01b0316846001600160a01b03167fc3d58168c5ae7397731d063d5bbf3d657854427343f4c083240f7aacaa2d0f6285856040516110ea929190918252602082015260400190565b60405180910390a45050610485565b836001600160a01b0316856001600160a01b0316826001600160a01b03167f4a39dc06d4c0dbc64b70af90fd698a233a518aa5d07e595d983b8c0526c8f7fb8686604051611148929190611a0a565b60405180910390a45050505050565b80356001600160a01b038116811461116d575f80fd5b919050565b5f8060408385031215611183575f80fd5b61118c83611157565b946020939093013593505050565b6001600160e01b0319811681146106f1575f80fd5b5f602082840312156111bf575f80fd5b81356111ca8161119a565b9392505050565b5f602082840312156111e1575f80fd5b5035919050565b5f81518084525f5b8181101561120c576020818501810151868301820152016111f0565b505f602082860101526020601f19601f83011685010191505092915050565b602081525f6111ca60208301846111e8565b5f806040838503121561124e575f80fd5b50508035926020909101359150565b634e487b7160e01b5f52604160045260245ffd5b604051601f8201601f1916810167ffffffffffffffff8111828210171561129a5761129a61125d565b604052919050565b5f67ffffffffffffffff8211156112bb576112bb61125d565b5060051b60200190565b5f82601f8301126112d4575f80fd5b813560206112e96112e4836112a2565b611271565b8083825260208201915060208460051b87010193508684111561130a575f80fd5b602086015b84811015611326578035835291830191830161130f565b509695505050505050565b5f82601f830112611340575f80fd5b813567ffffffffffffffff81111561135a5761135a61125d565b61136d601f8201601f1916602001611271565b818152846020838601011115611381575f80fd5b816020850160208301375f918101602001919091529392505050565b5f805f805f60a086880312156113b1575f80fd5b6113ba86611157565b94506113c860208701611157565b9350604086013567ffffffffffffffff808211156113e4575f80fd5b6113f089838a016112c5565b94506060880135915080821115611405575f80fd5b61141189838a016112c5565b93506080880135915080821115611426575f80fd5b5061143388828901611331565b9150509295509295909350565b5f8060408385031215611451575f80fd5b823567ffffffffffffffff80821115611468575f80fd5b818501915085601f83011261147b575f80fd5b8135602061148b6112e4836112a2565b82815260059290921b840181019181810190898411156114a9575f80fd5b948201945b838610156114ce576114bf86611157565b825294820194908201906114ae565b965050860135925050808211156114e3575f80fd5b506114f0858286016112c5565b9150509250929050565b5f815180845260208085019450602084015f5b838110156115295781518752958201959082019060010161150d565b509495945050505050565b602081525f6111ca60208301846114fa565b5f805f60608486031215611558575f80fd5b61156184611157565b9250602084013567ffffffffffffffff8082111561157d575f80fd5b611589878388016112c5565b9350604086013591508082111561159e575f80fd5b506115ab868287016112c5565b9150509250925092565b5f80604083850312156115c6575f80fd5b82359150602083013567ffffffffffffffff8111156115e3575f80fd5b6114f085828601611331565b5f8060408385031215611600575f80fd5b61160983611157565b91506020830135801515811461161d575f80fd5b809150509250929050565b5f805f805f60a0868803121561163c575f80fd5b61164586611157565b94506020860135935060408601359250606086013567ffffffffffffffff81111561166e575f80fd5b61167a88828901611331565b92505060808601356001600160601b0381168114611696575f80fd5b809150509295509295909350565b5f80604083850312156116b5575f80fd5b6116be83611157565b91506116cc60208401611157565b90509250929050565b5f805f805f60a086880312156116e9575f80fd5b6116f286611157565b945061170060208701611157565b93506040860135925060608601359150608086013567ffffffffffffffff811115611729575f80fd5b61143388828901611331565b5f60208284031215611745575f80fd5b6111ca82611157565b5f805f60608486031215611760575f80fd5b61176984611157565b95602085013595506040909401359392505050565b600181811c9082168061179257607f821691505b6020821081036117b057634e487b7160e01b5f52602260045260245ffd5b50919050565b634e487b7160e01b5f52601160045260245ffd5b808202811582820484141761033b5761033b6117b6565b5f826117fb57634e487b7160e01b5f52601260045260245ffd5b500490565b634e487b7160e01b5f52603260045260245ffd5b601f8211156105bb57805f5260205f20601f840160051c810160208510156118395750805b601f840160051c820191505b81811015610485575f8155600101611845565b815167ffffffffffffffff8111156118725761187261125d565b61188681611880845461177e565b84611814565b602080601f8311600181146118b9575f84156118a25750858301515b5f19600386901b1c1916600185901b1785556109e4565b5f85815260208120601f198616915b828110156118e7578886015182559484019460019091019084016118c8565b508582101561190457878501515f19600388901b60f8161c191681555b5050505050600190811b01905550565b838152826020820152606060408201525f61193260608301846111e8565b95945050505050565b6001600160a01b0386811682528516602082015260a0604082018190525f90611966908301866114fa565b828103606084015261197881866114fa565b9050828103608084015261198c81856111e8565b98975050505050505050565b5f602082840312156119a8575f80fd5b81516111ca8161119a565b6001600160a01b03868116825285166020820152604081018490526060810183905260a0608082018190525f906119ec908301846111e8565b979650505050505050565b8082018082111561033b5761033b6117b6565b604081525f611a1c60408301856114fa565b828103602084015261193281856114fa56fea2646970667358221220a8138ffd84e228cfc71c802e68c53d59ea7b880956b441299c6b91e84394fb2b64736f6c63430008180033",
  "linkReferences": {},
  "deployedLinkReferences": {}
}