{
  "_format": "hh-sol-artifact-1",
  "contractName": "ChainStreamSubscription",
  "sourceName": "contracts/ChainStreamSubscription.sol",
  "abi": [
    {
      "inputs": [],
      "stateMutability": "nonpayable",
      "type": "constructor"
    },
    {
      "inputs": [
        {
          "internalType": "address",
          "name": "owner",
          "type": "address"
        }
      ],
      "name": "OwnableInvalidOwner",
      "type": "error"
    },
    {
      "inputs": [
        {
          "internalType": "address",
          "name": "account",
          "type": "address"
        }
      ],
      "name": "OwnableUnauthorizedAccount",
      "type": "error"
    },
    {
      "anonymous": false,
      "inputs": [
        {
          "indexed": true,
          "internalType": "address",
          "name": "previousOwner",
          "type": "address"
        },
        {
          "indexed": true,
          "internalType": "address",
          "name": "newOwner",
          "type": "address"
        }
      ],
      "name": "OwnershipTransferred",
      "type": "event"
    },
    {
      "anonymous": false,
      "inputs": [
        {
          "indexed": true,
          "internalType": "address",
          "name": "user",
          "type": "address"
        },
        {
          "indexed": false,
          "internalType": "uint256",
          "name": "newExpiration",
          "type": "uint256"
        },
        {
          "indexed": false,
          "internalType": "uint256",
          "name": "amountPaid",
          "type": "uint256"
        }
      ],
      "name": "Subscribed",
      "type": "event"
    },
    {
      "inputs": [
        {
          "internalType": "address",
          "name": "_user",
          "type": "address"
        }
      ],
      "name": "isSubscribed",
      "outputs": [
        {
          "internalType": "bool",
          "name": "",
          "type": "bool"
        }
      ],
      "stateMutability": "view",
      "type": "function"
    },
    {
      "inputs": [],
      "name": "owner",
      "outputs": [
        {
          "internalType": "address",
          "name": "",
          "type": "address"
        }
      ],
      "stateMutability": "view",
      "type": "function"
    },
    {
      "inputs": [
        {
          "internalType": "address[]",
          "name": "artists",
          "type": "address[]"
        },
        {
          "internalType": "uint256[]",
          "name": "amounts",
          "type": "uint256[]"
        }
      ],
      "name": "payoutRoyalties",
      "outputs": [],
      "stateMutability": "nonpayable",
      "type": "function"
    },
    {
      "inputs": [],
      "name": "renounceOwnership",
      "outputs": [],
      "stateMutability": "nonpayable",
      "type": "function"
    },
    {
      "inputs": [
        {
          "internalType": "uint256",
          "name": "_price",
          "type": "uint256"
        }
      ],
      "name": "setPrice",
      "outputs": [],
      "stateMutability": "nonpayable",
      "type": "function"
    },
    {
      "inputs": [],
      "name": "subscribe",
      "outputs": [],
      "stateMutability": "payable",
      "type": "function"
    },
    {
      "inputs": [
        {
          "internalType": "address",
          "name": "",
          "type": "address"
        }
      ],
      "name": "subscriberExpirations",
      "outputs": [
        {
          "internalType": "uint256",
          "name": "",
          "type": "uint256"
        }
      ],
      "stateMutability": "view",
      "type": "function"
    },
    {
      "inputs": [],
      "name": "subscriptionDuration",
      "outputs": [
        {
          "internalType": "uint256",
          "name": "",
          "type": "uint256"
        }
      ],
      "stateMutability": "view",
      "type": "function"
    },
    {
      "inputs": [],
      "name": "subscriptionPrice",
      "outputs": [
        {
          "internalType": "uint256",
          "name": "",
          "type": "uint256"
        }
      ],
      "stateMutability": "view",
      "type": "function"
    },
    {
      "inputs": [
        {
          "internalType": "address",
          "name": "newOwner",
          "type": "address"
        }
      ],
      "name": "transferOwnership",
      "outputs": [],
      "stateMutability": "nonpayable",
      "type": "function"
    },
    {
      "inputs": [],
      "name": "withdraw",
      "outputs": [],
      "stateMutability": "nonpayable",
      "type": "function"
    }
  ],
  "bytecode": "0x6080604052662386f26fc1000060015562278d00600255348015610021575f80fd5b50338061004757604051631e4fbdf760e01b81525f600482015260240160405180910390fd5b61005081610056565b506100a5565b5f80546001600160a01b038381166001600160a01b0319831681178455604051919092169283917f8be0079c531659141344cd1fd0a4f28419497f9722a3daafe3b4186f6b6457e09190a35050565b6106de806100b25f395ff3fe60806040526004361061009a575f3560e01c80638f449a05116100625780638f449a051461013557806391b7f5ed1461013d578063b7454cc21461015c578063b92ae87c14610187578063bdc8e54c146101ce578063f2fde38b146101e3575f80fd5b80633ccfd60b1461009e578063715018a6146100b45780637a94a633146100c8578063884d19ce146100f05780638da5cb5b1461010f575b5f80fd5b3480156100a9575f80fd5b506100b2610202565b005b3480156100bf575f80fd5b506100b2610244565b3480156100d3575f80fd5b506100dd60025481565b6040519081526020015b60405180910390f35b3480156100fb575f80fd5b506100b261010a3660046105c4565b610257565b34801561011a575f80fd5b505f546040516001600160a01b0390911681526020016100e7565b6100b26103c0565b348015610148575f80fd5b506100b261015736600461062b565b6104ba565b348015610167575f80fd5b506100dd610176366004610642565b60036020525f908152604090205481565b348015610192575f80fd5b506101be6101a1366004610642565b6001600160a01b03165f9081526003602052604090205442111590565b60405190151581526020016100e7565b3480156101d9575f80fd5b506100dd60015481565b3480156101ee575f80fd5b506100b26101fd366004610642565b6104c7565b61020a610501565b5f80546040516001600160a01b03909116914780156108fc02929091818181858888f19350505050158015610241573d5f803e3d5ffd5b50565b61024c610501565b6102555f61052d565b565b61025f610501565b8281146102a75760405162461bcd60e51b81526020600482015260116024820152704d69736d6174636865642061727261797360781b60448201526064015b60405180910390fd5b5f805b828110156102e0578383828181106102c4576102c461066f565b90506020020135826102d69190610683565b91506001016102aa565b50804710156103315760405162461bcd60e51b815260206004820152601d60248201527f496e73756666696369656e7420636f6e74726163742062616c616e6365000000604482015260640161029e565b5f5b848110156103b85785858281811061034d5761034d61066f565b90506020020160208101906103629190610642565b6001600160a01b03166108fc8585848181106103805761038061066f565b9050602002013590811502906040515f60405180830381858888f193505050501580156103af573d5f803e3d5ffd5b50600101610333565b505050505050565b6001543410156104095760405162461bcd60e51b8152602060048201526014602482015273125b9cdd59999a58da595b9d081c185e5b595b9d60621b604482015260640161029e565b335f908152600360205260409020544211156104405760025461042c9042610683565b335f90815260036020526040902055610467565b600254335f9081526003602052604081208054909190610461908490610683565b90915550505b335f81815260036020526040908190205490517ff94991dcbea6e8ac439cbc93bd9c62a4d39f04e0ad656df9a703f13552c2787f916104b0913490918252602082015260400190565b60405180910390a2565b6104c2610501565b600155565b6104cf610501565b6001600160a01b0381166104f857604051631e4fbdf760e01b81525f600482015260240161029e565b6102418161052d565b5f546001600160a01b031633146102555760405163118cdaa760e01b815233600482015260240161029e565b5f80546001600160a01b038381166001600160a01b0319831681178455604051919092169283917f8be0079c531659141344cd1fd0a4f28419497f9722a3daafe3b4186f6b6457e09190a35050565b5f8083601f84011261058c575f80fd5b50813567ffffffffffffffff8111156105a3575f80fd5b6020830191508360208260051b85010111156105bd575f80fd5b9250929050565b5f805f80604085870312156105d7575f80fd5b843567ffffffffffffffff808211156105ee575f80fd5b6105fa8883890161057c565b90965094506020870135915080821115610612575f80fd5b5061061f8782880161057c565b95989497509550505050565b5f6020828403121561063b575f80fd5b5035919050565b5f60208284031215610652575f80fd5b81356001600160a01b0381168114610668575f80fd5b9392505050565b634e487b7160e01b5f52603260045260245ffd5b808201808211156106a257634e487b7160e01b5f52601160045260245ffd5b9291505056fea264697066735822122029a9ccea723009daf20faca4c868f3dc7bb284cbbdfd037f568efaf74b4a6e6864736f6c63430008180033",
  "linkReferences": {},
  "deployedLinkReferences": {}
}