{
  "_format": "hh-sol-artifact-1",
  "contractName": "ChainStreamSubscription",
  "sourceName": "contracts/ChainStreamSubscription.sol",
  "abi": [
    {
      "inputs": [],
      "stateMutability": "nonpayable",
      "type": "constructor"
    },
    {
      "inputs": [
        {
          "internalType": "address",
          "name": "owner",
          "type": "address"
        }
      ],
      "name": "OwnableInvalidOwner",
      "type": "error"
    },
    {
      "inputs": [
        {
          "internalType": "address",
          "name": "account",
          "type": "address"
        }
      ],
      "name": "OwnableUnauthorizedAccount",
      "type": "error"
    },
    {
      "anonymous": false,
      "inputs": [
        {
          "indexed": true,
          "internalType": "address",
          "name": "previousOwner",
          "type": "address"
        },
        {
          "indexed": true,
          "internalType": "address",
          "name": "newOwner",
          "type": "address"
        }
      ],
      "name": "OwnershipTransferred",
      "type": "event"
    },
    {
      "anonymous": false,
      "inputs": [
        {
          "indexed": false,
          "internalType": "uint256",
          "name": "newBps",
          "type": "uint256"
        }
      ],
      "name": "PlatformFeeUpdated",
      "type": "event"
    },
    {
      "anonymous": false,
      "inputs": [
        {
          "indexed": true,
          "internalType": "address",
          "name": "user",
          "type": "address"
        },
        {
          "indexed": false,
          "internalType": "uint256",
          "name": "newExpiration",
          "type": "uint256"
        },
        {
          "indexed": false,
          "internalType": "uint256",
          "name": "amountPaid",
          "type": "uint256"
        }
      ],
      "name": "Subscribed",
      "type": "event"
    },
    {
      "inputs": [
        {
          "internalType": "address",
          "name": "_user",
          "type": "address"
        }
      ],
      "name": "isSubscribed",
      "outputs": [
        {
          "internalType": "bool",
          "name": "",
          "type": "bool"
        }
      ],
      "stateMutability": "view",
      "type": "function"
    },
    {
      "inputs": [],
      "name": "owner",
      "outputs": [
        {
          "internalType": "address",
          "name": "",
          "type": "address"
        }
      ],
      "stateMutability": "view",
      "type": "function"
    },
    {
      "inputs": [
        {
          "internalType": "address[]",
          "name": "artists",
          "type": "address[]"
        },
        {
          "internalType": "uint256[]",
          "name": "amounts",
          "type": "uint256[]"
        }
      ],
      "name": "payoutRoyalties",
      "outputs": [],
      "stateMutability": "nonpayable",
      "type": "function"
    },
    {
      "inputs": [],
      "name": "platformFeeBps",
      "outputs": [
        {
          "internalType": "uint256",
          "name": "",
          "type": "uint256"
        }
      ],
      "stateMutability": "view",
      "type": "function"
    },
    {
      "inputs": [],
      "name": "renounceOwnership",
      "outputs": [],
      "stateMutability": "nonpayable",
      "type": "function"
    },
    {
      "inputs": [
        {
          "internalType": "uint256",
          "name": "_bps",
          "type": "uint256"
        }
      ],
      "name": "setPlatformFee",
      "outputs": [],
      "stateMutability": "nonpayable",
      "type": "function"
    },
    {
      "inputs": [
        {
          "internalType": "uint256",
          "name": "_price",
          "type": "uint256"
        }
      ],
      "name": "setPrice",
      "outputs": [],
      "stateMutability": "nonpayable",
      "type": "function"
    },
    {
      "inputs": [],
      "name": "subscribe",
      "outputs": [],
      "stateMutability": "payable",
      "type": "function"
    },
    {
      "inputs": [
        {
          "internalType": "address",
          "name": "",
          "type": "address"
        }
      ],
      "name": "subscriberExpirations",
      "outputs": [
        {
          "internalType": "uint256",
          "name": "",
          "type": "uint256"
        }
      ],
      "stateMutability": "view",
      "type": "function"
    },
    {
      "inputs": [],
      "name": "subscriptionDuration",
      "outputs": [
        {
          "internalType": "uint256",
          "name": "",
          "type": "uint256"
        }
      ],
      "stateMutability": "view",
      "type": "function"
    },
    {
      "inputs": [],
      "name": "subscriptionPrice",
      "outputs": [
        {
          "internalType": "uint256",
          "name": "",
          "type": "uint256"
        }
      ],
      "stateMutability": "view",
      "type": "function"
    },
    {
      "inputs": [
        {
          "internalType": "address",
          "name": "newOwner",
          "type": "address"
        }
      ],
      "name": "transferOwnership",
      "outputs": [],
      "stateMutability": "nonpayable",
      "type": "function"
    },
    {
      "inputs": [],
      "name": "withdraw",
      "outputs": [],
      "stateMutability": "nonpayable",
      "type": "function"
    }
  ],
  "bytecode": "0x6080604052662386f26fc1000060015562278d0060025560fa600355348015610026575f80fd5b50338061004c57604051631e4fbdf760e01b81525f600482015260240160405180910390fd5b6100558161005b565b506100aa565b5f80546001600160a01b038381166001600160a01b0319831681178455604051919092169283917f8be0079c531659141344cd1fd0a4f28419497f9722a3daafe3b4186f6b6457e09190a35050565b610856806100b75f395ff3fe6080604052600436106100bf575f3560e01c80638da5cb5b1161007c578063b7454cc211610057578063b7454cc2146101b5578063b92ae87c146101e0578063bdc8e54c14610227578063f2fde38b1461023c575f80fd5b80638da5cb5b146101685780638f449a051461018e57806391b7f5ed14610196575f80fd5b806312e8e2c3146100c357806322dcd13e146100e45780633ccfd60b1461010c578063715018a6146101205780637a94a63314610134578063884d19ce14610149575b5f80fd5b3480156100ce575f80fd5b506100e26100dd3660046106b6565b61025b565b005b3480156100ef575f80fd5b506100f960035481565b6040519081526020015b60405180910390f35b348015610117575f80fd5b506100e26102e4565b34801561012b575f80fd5b506100e2610326565b34801561013f575f80fd5b506100f960025481565b348015610154575f80fd5b506100e2610163366004610715565b610339565b348015610173575f80fd5b505f546040516001600160a01b039091168152602001610103565b6100e261049d565b3480156101a1575f80fd5b506100e26101b03660046106b6565b6105f4565b3480156101c0575f80fd5b506100f96101cf36600461077c565b60046020525f908152604090205481565b3480156101eb575f80fd5b506102176101fa36600461077c565b6001600160a01b03165f9081526004602052604090205442111590565b6040519015158152602001610103565b348015610232575f80fd5b506100f960015481565b348015610247575f80fd5b506100e261025636600461077c565b610601565b61026361063b565b6103e88111156102a95760405162461bcd60e51b815260206004820152600c60248201526b08ccaca40e8dede40d0d2ced60a31b60448201526064015b60405180910390fd5b60038190556040518181527f45610d581145924dd7090a5017e5f2b1d6f42213bb2e95707ff86846bbfcb1ca9060200160405180910390a150565b6102ec61063b565b5f80546040516001600160a01b03909116914780156108fc02929091818181858888f19350505050158015610323573d5f803e3d5ffd5b50565b61032e61063b565b6103375f610667565b565b61034161063b565b8281146103845760405162461bcd60e51b81526020600482015260116024820152704d69736d6174636865642061727261797360781b60448201526064016102a0565b5f805b828110156103bd578383828181106103a1576103a16107a9565b90506020020135826103b391906107d1565b9150600101610387565b508047101561040e5760405162461bcd60e51b815260206004820152601d60248201527f496e73756666696369656e7420636f6e74726163742062616c616e636500000060448201526064016102a0565b5f5b848110156104955785858281811061042a5761042a6107a9565b905060200201602081019061043f919061077c565b6001600160a01b03166108fc85858481811061045d5761045d6107a9565b9050602002013590811502906040515f60405180830381858888f1935050505015801561048c573d5f803e3d5ffd5b50600101610410565b505050505050565b6001543410156104e65760405162461bcd60e51b8152602060048201526014602482015273125b9cdd59999a58da595b9d081c185e5b595b9d60621b60448201526064016102a0565b5f612710600354346104f891906107ea565b6105029190610801565b90508015610542575f80546040516001600160a01b039091169183156108fc02918491818181858888f19350505050158015610540573d5f803e3d5ffd5b505b335f908152600460205260409020544211156105795760025461056590426107d1565b335f908152600460205260409020556105a0565b600254335f908152600460205260408120805490919061059a9084906107d1565b90915550505b335f81815260046020526040908190205490517ff94991dcbea6e8ac439cbc93bd9c62a4d39f04e0ad656df9a703f13552c2787f916105e9913490918252602082015260400190565b60405180910390a250565b6105fc61063b565b600155565b61060961063b565b6001600160a01b03811661063257604051631e4fbdf760e01b81525f60048201526024016102a0565b61032381610667565b5f546001600160a01b031633146103375760405163118cdaa760e01b81523360048201526024016102a0565b5f80546001600160a01b038381166001600160a01b0319831681178455604051919092169283917f8be0079c531659141344cd1fd0a4f28419497f9722a3daafe3b4186f6b6457e09190a35050565b5f602082840312156106c6575f80fd5b5035919050565b5f8083601f8401126106dd575f80fd5b50813567ffffffffffffffff8111156106f4575f80fd5b6020830191508360208260051b850101111561070e575f80fd5b9250929050565b5f805f8060408587031215610728575f80fd5b843567ffffffffffffffff8082111561073f575f80fd5b61074b888389016106cd565b90965094506020870135915080821115610763575f80fd5b50610770878288016106cd565b95989497509550505050565b5f6020828403121561078c575f80fd5b81356001600160a01b03811681146107a2575f80fd5b9392505050565b634e487b7160e01b5f52603260045260245ffd5b634e487b7160e01b5f52601160045260245ffd5b808201808211156107e4576107e46107bd565b92915050565b80820281158282048414176107e4576107e46107bd565b5f8261081b57634e487b7160e01b5f52601260045260245ffd5b50049056fea26469706673582212202d55bbd03c5040b7e391f5c3d3ed0f5808655e988f9ba72f014fd58eb6e0646964736f6c63430008180033",
  "linkReferences": {},
  "deployedLinkReferences": {}
}